:020000042000DA
:100000000000012099020020090300200B030020BA
:100010000D0300200F03002011030020000000004A
:10002000000000000000000000000000130300209A
:100030001503002000000000170300201903002012
:100040001B0300201D0300201F03002021030020AC
:10005000230300202503002027030020290300207C
:100060002B0300202D0300209D070020CD0700203A
:10007000330300203503002037030020390300201C
:100080003B0300203D0300203F03002041030020EC
:1000900043030020450300204703002049030020BC
:1000A0004B030020000000000000000000000000E2
:1000B0000000000000000000000000004D030020D0
:1000C0004F0300205103002053030020550300205C
:1000D00057030020590300205B0300205D0300202C
:1000E0005F030020610300206303002065030020FC
:1000F00067030020690300206B0300206D030020CC
:100100006F0300207103002073030020750300209B
:1001100077030020790300207B0300207D0300206B
:100120007F0300208103002083030020850300203B
:1001300087030020890300208B0300208D0300200B
:100140008F030020910300209303002095030020DB
:1001500097030020990300209B0300209D030020AB
:100160009F030020A1030020A3030020A50300207B
:10017000A7030020A9030020AB030020AD0300204B
:10018000AF030020B1030020B3030020B50300201B
:10019000B7030020B9030020BB030020BD030020EB
:1001A000BF030020C1030020C3030020C5030020BB
:1001B000C7030020C9030020CB030020CD0300208B
:1001C000CF030020D1030020D3030020D50300205B
:1001D000D7030020D9030020DB030020DD0300202B
:1001E000DF030020E1030020E3030020E5030020FB
:1001F000E7030020E9030020EB030020ED030020CB
:10020000EF030020F1030020F3030020F50300209A
:10021000F7030020F9030020FB030020FD0300206A
:10022000FF03002001040020030400200504002037
:1002300007040020090400200B0400200D04002006
:100240000F040020110400201304002015040020D6
:1002500017040020190400201B0400201D040020A6
:100260001F04002021040020230400202504002076
:1002700027040020290400202B0400202D04002046
:100280002F04002031040020330400203504002016
:100290003704002039040020684880476848002857
:1002A0000BD168486849694A884206D091421CBF10
:1002B00050F8043B41F8043BF8D165486549664A6B
:1002C000884206D091421CBF50F8043B41F8043BE1
:1002D000F8D162486249634A914218BF41F8040B61
:1002E000FAD1000000000000000000000000000043
:1002F000DFF874010FF2030E00474FF000004FF0DB
:100300000001DFF868F1FEE7FEE7FEE7FEE7FEE743
:10031000FEE7FEE7FEE7FEE7FEE7FEE7FEE7FEE7B5
:10032000FEE7FEE7FEE7FEE7FEE7FEE7FEE7FEE7A5
:10033000FEE7FEE7FEE7FEE7FEE7FEE7FEE7FEE795
:10034000FEE7FEE7FEE7FEE7FEE7FEE7FEE7FEE785
:10035000FEE7FEE7FEE7FEE7FEE7FEE7FEE7FEE775
:10036000FEE7FEE7FEE7FEE7FEE7FEE7FEE7FEE765
:10037000FEE7FEE7FEE7FEE7FEE7FEE7FEE7FEE755
:10038000FEE7FEE7FEE7FEE7FEE7FEE7FEE7FEE745
:10039000FEE7FEE7FEE7FEE7FEE7FEE7FEE7FEE735
:1003A000FEE7FEE7FEE7FEE7FEE7FEE7FEE7FEE725
:1003B000FEE7FEE7FEE7FEE7FEE7FEE7FEE7FEE715
:1003C000FEE7FEE7FEE7FEE7FEE7FEE7FEE7FEE705
:1003D000FEE7FEE7FEE7FEE7FEE7FEE7FEE7FEE7F5
:1003E000FEE7FEE7FEE7FEE7FEE7FEE7FEE7FEE7E5
:1003F000FEE7FEE7FEE7FEE7FEE7FEE7FEE7FEE7D5
:10040000FEE7FEE7FEE7FEE7FEE7FEE7FEE7FEE7C4
:10041000FEE7FEE7FEE7FEE7FEE7FEE7FEE7FEE7B4
:10042000FEE7FEE7FEE7FEE7FEE7FEE7FEE7FEE7A4
:10043000FEE7FEE7FEE7FEE7FEE700004D090020CD
:10044000000000000000002000000020D40B00206D
:10045000D40B0020D40B0020F00B00200000000083
:10046000F00B0020480C0020810A0020A10400208D
:1004700040F6F033C2F200031A780AB9012018706E
:10048000704700BF40F6D430C2F2000008B50368E0
:100490002BB140F20003C0F2000303B1984708BD3E
:1004A00080B592B000AF4FF000037B6007F1080207
:1004B0004FF03C0310464FF000011A4600F008FBD5
:1004C0004FF000037B6440F61C40C2F200004FF482
:1004D00016514FF0030200F091F940F6F430C2F2E9
:1004E00000004FF416514FF0030200F087F900E0CE
:1004F00000BF07F1040340F6F430C2F200001946D1
:100500004FF0400200F070F803467B647B6C002BD8
:1005100008D007F1040340F61C40C2F2000019465F
:1005200000F01AF807F1040340F61C40C2F2000084
:1005300019464FF0400200F057F803467B647B6C8D
:10054000002BD5D007F1040340F6F430C2F20000CE
:10055000194600F001F8CCE7F0B440F61C43C2F2B3
:100560000003984206D040F6F433C2F200039842EA
:1005700000D000BE01B900BE40F61C43C2F2000329
:10058000984205D040F6F433C2F20003984228D1D5
:1005900039B30D782DB34FF0000C66460468237D07
:1005A000827A43EA0202827213F0200FF7D0C5B1BB
:1005B000334601EB0C070268EDB2157003F101033D
:1005C00003EB0C04FD5C0F2B8CBF00220122002DDD
:1005D0000CBF002202F00102002AECD10DB1A446AA
:1005E000DCE7F0BC704700BF10B4034640F61C4087
:1005F000C2F20000834206D040F6F430C2F200009E
:10060000834200D000BE01B900BE02B900BE40F670
:100610001C40C2F20000834205D040F6F430C2F222
:10062000000083422AD1101E18BF012000290CBFF0
:10063000002400F001040CB31C6894F814C09C7AE8
:100640004CEA04049C721CEA000F17D04FF0000023
:100650001C6894F800C001F800C000F101001C689B
:1006600094F814C09C7A4CEA04049C72824294BFB1
:1006700000240CF00104002CEAD101E04FF000004E
:1006800010BC704708B540F61C43C2F20003984204
:1006900007D040F6F433C2F20003984201D000BE06
:1006A00008BD03681B7A03F00F030C2B20D8DFE88A
:1006B00003F0071F0D1F131F191F1F1F1F1F1300FC
:1006C000436A0BB900BE08BD984708BD036A0BB961
:1006D00000BE08BD984708BDC3690BB900BE08BD80
:1006E000984708BD83690BB900BE08BD984708BD8F
:1006F00000BE08BD10B440F61C43C2F2000398428D
:1007000006D040F6F433C2F20003984200D000BE97
:10071000C26802B900BE016901B900BE40F61C43BF
:10072000C2F20003984205D040F6F433C2F200034F
:10073000984230D1002A2ED000292CD003681B7D8E
:10074000827A43EA0202827213F0200F1AD0026901
:100750004369C3EB02030F2B04D94FF0100C4FF089
:10076000000302E073B19C46F9E70268C46841697E
:10077000615C1170426902F10102426103F10103FF
:100780006345F2D3426903699A4201BF00230361C2
:100790004268C2F8843010BC704700BF684620F041
:1007A00007018D4601B540F61C40C2F20000FFF77C
:1007B00069FF4EF20013CEF200034FF48062C3F8DB
:1007C0008021BDE801408546704700BF684620F0A3
:1007D00007018D4601B540F6F430C2F20000FFF784
:1007E00051FF4EF20013CEF200034FF40062C3F843
:1007F0008021BDE801408546704700BF70B50446C2
:100800000D46164640F61C43C2F20003984206D03D
:1008100040F6F433C2F20003984200D000BE05B99E
:1008200000BE00F095F840F61C43C2F200039C4263
:1008300026D140F61C43C2F200034FF080421A60FA
:100840004FF084425A604FF00A021A8140F6E033BA
:10085000C2F20003186842F20003CEF204031A6BDE
:1008600042F080021A634EF20012CEF200024FF400
:100870008061C2F880111A6B22F080021A6325E0B1
:1008800040F20003C4F20103236040F20003C4F20B
:10089000202363604FF00B03238140F6E433C2F260
:1008A0000003186842F20003CEF204031A6B42F40C
:1008B00080721A634EF20012CEF200024FF4006111
:1008C000C2F880111A6B22F480721A6323684FF009
:1008D00000021A7115B94FF001050FE0B0FBF5F5F4
:1008E00015F0080F4FEA151518BF0135B5F5803F13
:1008F00038BFADB202D300BE4FF0010563684FF0C0
:100900000102C3F89C2123684FEA15221A7123685B
:10091000EDB21D7062684FF00003C2F89C3122688E
:10092000167322684FF00E0111726268C2F810321D
:100930002361E3606361E36140F2F562C2F20002A9
:100940002262A3616362A37270BD00BF704700BFE3
:1009500030B484B040F6A433C2F20003EC460FCBAF
:100960008CE80F0042F20003CEF204039A6C02F00E
:100970000C0204A90A4452F8105C9A6CC2F30112EA
:1009800001EB820252F8104C9A6CC2F3811201EB17
:10099000820252F8100CD96CDB6CC1F3042101F116
:1009A000010113F4005F18BF490040F23023C6F282
:1009B00008031A6822F0704241F2CF13C0F2A1532B
:1009C0009A4205D14EF62C73C6F201031B6828E04B
:1009D00040F61C03C6F208031A6844F24133C4F619
:1009E00054439A421ED140F64003C6F208031A68E7
:1009F00022F07F4240F20033C0F201039A4211D943
:100A0000B2F5003F05D241F22C63C6F208031B6821
:100A100007E0B2F5403F05D241F6AC63C6F20803E9
:100A20001B6823B900BE47F64003C0F27D1340F6B1
:100A3000E832C2F20002136040F6E032C2F2000275
:100A4000B3FBF5F5156040F6E432C2F20002B3FBE9
:100A5000F4F4146040F6D832C2F20002B3FBF0F0B6
:100A6000106040F6DC32C2F20002B3FBF1F111601B
:100A700040F6EC32C2F20002136004B030BC7047A2
:100A800070B540F6CC3640F6CC35C2F20006C2F264
:100A90000005761BB61006D0002455F8243001342A
:100AA0009847A642F9D840F6CC3540F6D036C2F287
:100AB0000005C2F20006761B00F07CF8B61006D0E6
:100AC000002455F8243001349847A642F9D870BD67
:100AD000032AC9B230B407D822B10023C15401336C
:100AE0009342FBD130BC704700EB020C034601E09F
:100AF00003F8011C03F003041A460133002CF7D15C
:100B00004FF00133C2EB0C0403FB01F31FE042F88A
:100B1000403C42F83C3C42F8383C42F8343C42F815
:100B2000303C42F82C3C42F8283C42F8243C42F845
:100B3000203C42F81C3C42F8183C42F8143C42F875
:100B4000103C42F80C3C42F8083C42F8043C154684
:100B500040323F2CA4F14004D9DC2A46C5EB0C04FA
:100B600007E042F8103C42F80C3C42F8083C42F8DE
:100B7000043C154610320F2CA4F11004F1DC2A4677
:100B8000C5EB0C0501E042F8043C14460432032D89
:100B9000A5F10405F7DC01E004F8011B6445FBD373
:100BA000A0E700BF010000000200000004000000F8
:100BB00001000000F8B500BFF8BC08BC9E467047B5
:100BC000F8B500BFF8BC08BC9E46704785040020FD
:040BD000710400208C
:100BD40000000000105E5F00105E5F00105E5F00AA
:0C0BE400105E5F0040787D0140787D01CC
:04000005200002993C
:00000001FF
